{
  "_format": "hh-sol-artifact-1",
  "contractName": "DAOInteraction",
  "sourceName": "contracts/DAOInteraction.sol",
  "abi": [
    {
      "anonymous": false,
      "inputs": [
        {
          "indexed": false,
          "internalType": "address",
          "name": "previousAdmin",
          "type": "address"
        },
        {
          "indexed": false,
          "internalType": "address",
          "name": "newAdmin",
          "type": "address"
        }
      ],
      "name": "AdminChanged",
      "type": "event"
    },
    {
      "anonymous": false,
      "inputs": [
        {
          "indexed": true,
          "internalType": "address",
          "name": "beacon",
          "type": "address"
        }
      ],
      "name": "BeaconUpgraded",
      "type": "event"
    },
    {
      "anonymous": false,
      "inputs": [
        {
          "indexed": true,
          "internalType": "address",
          "name": "user",
          "type": "address"
        },
        {
          "indexed": false,
          "internalType": "uint256",
          "name": "amount",
          "type": "uint256"
        }
      ],
      "name": "Borrow",
      "type": "event"
    },
    {
      "anonymous": false,
      "inputs": [
        {
          "indexed": true,
          "internalType": "address",
          "name": "user",
          "type": "address"
        },
        {
          "indexed": false,
          "internalType": "uint256",
          "name": "amount",
          "type": "uint256"
        }
      ],
      "name": "Deposit",
      "type": "event"
    },
    {
      "anonymous": false,
      "inputs": [
        {
          "indexed": true,
          "internalType": "address",
          "name": "previousOwner",
          "type": "address"
        },
        {
          "indexed": true,
          "internalType": "address",
          "name": "newOwner",
          "type": "address"
        }
      ],
      "name": "OwnershipTransferred",
      "type": "event"
    },
    {
      "anonymous": false,
      "inputs": [
        {
          "indexed": true,
          "internalType": "address",
          "name": "user",
          "type": "address"
        },
        {
          "indexed": false,
          "internalType": "uint256",
          "name": "amount",
          "type": "uint256"
        }
      ],
      "name": "Payback",
      "type": "event"
    },
    {
      "anonymous": false,
      "inputs": [
        {
          "indexed": true,
          "internalType": "address",
          "name": "implementation",
          "type": "address"
        }
      ],
      "name": "Upgraded",
      "type": "event"
    },
    {
      "anonymous": false,
      "inputs": [
        {
          "indexed": true,
          "internalType": "address",
          "name": "user",
          "type": "address"
        },
        {
          "indexed": false,
          "internalType": "uint256",
          "name": "amount",
          "type": "uint256"
        }
      ],
      "name": "Withdraw",
      "type": "event"
    },
    {
      "inputs": [
        {
          "internalType": "address",
          "name": "token",
          "type": "address"
        },
        {
          "internalType": "address",
          "name": "usr",
          "type": "address"
        }
      ],
      "name": "availableToBorrow",
      "outputs": [
        {
          "internalType": "int256",
          "name": "",
          "type": "int256"
        }
      ],
      "stateMutability": "view",
      "type": "function"
    },
    {
      "inputs": [
        {
          "internalType": "address",
          "name": "token",
          "type": "address"
        },
        {
          "internalType": "uint256",
          "name": "dart",
          "type": "uint256"
        }
      ],
      "name": "borrow",
      "outputs": [
        {
          "internalType": "uint256",
          "name": "",
          "type": "uint256"
        }
      ],
      "stateMutability": "nonpayable",
      "type": "function"
    },
    {
      "inputs": [
        {
          "internalType": "address",
          "name": "token",
          "type": "address"
        }
      ],
      "name": "borrowApr",
      "outputs": [
        {
          "internalType": "uint256",
          "name": "",
          "type": "uint256"
        }
      ],
      "stateMutability": "view",
      "type": "function"
    },
    {
      "inputs": [
        {
          "internalType": "address",
          "name": "token",
          "type": "address"
        },
        {
          "internalType": "address",
          "name": "usr",
          "type": "address"
        }
      ],
      "name": "borrowed",
      "outputs": [
        {
          "internalType": "uint256",
          "name": "",
          "type": "uint256"
        }
      ],
      "stateMutability": "view",
      "type": "function"
    },
    {
      "inputs": [
        {
          "internalType": "address",
          "name": "token",
          "type": "address"
        }
      ],
      "name": "collateralPrice",
      "outputs": [
        {
          "internalType": "uint256",
          "name": "",
          "type": "uint256"
        }
      ],
      "stateMutability": "view",
      "type": "function"
    },
    {
      "inputs": [
        {
          "internalType": "address",
          "name": "token",
          "type": "address"
        }
      ],
      "name": "collateralRate",
      "outputs": [
        {
          "internalType": "uint256",
          "name": "",
          "type": "uint256"
        }
      ],
      "stateMutability": "view",
      "type": "function"
    },
    {
      "inputs": [
        {
          "internalType": "address",
          "name": "token",
          "type": "address"
        }
      ],
      "name": "collateralTVL",
      "outputs": [
        {
          "internalType": "uint256",
          "name": "",
          "type": "uint256"
        }
      ],
      "stateMutability": "view",
      "type": "function"
    },
    {
      "inputs": [
        {
          "internalType": "address",
          "name": "token",
          "type": "address"
        },
        {
          "internalType": "address",
          "name": "usr",
          "type": "address"
        }
      ],
      "name": "currentLiquidationPrice",
      "outputs": [
        {
          "internalType": "uint256",
          "name": "",
          "type": "uint256"
        }
      ],
      "stateMutability": "view",
      "type": "function"
    },
    {
      "inputs": [
        {
          "internalType": "address",
          "name": "usr",
          "type": "address"
        }
      ],
      "name": "deny",
      "outputs": [],
      "stateMutability": "nonpayable",
      "type": "function"
    },
    {
      "inputs": [
        {
          "internalType": "address",
          "name": "token",
          "type": "address"
        },
        {
          "internalType": "uint256",
          "name": "dink",
          "type": "uint256"
        }
      ],
      "name": "deposit",
      "outputs": [
        {
          "internalType": "uint256",
          "name": "",
          "type": "uint256"
        }
      ],
      "stateMutability": "nonpayable",
      "type": "function"
    },
    {
      "inputs": [
        {
          "internalType": "address",
          "name": "token",
          "type": "address"
        }
      ],
      "name": "depositTVL",
      "outputs": [
        {
          "internalType": "uint256",
          "name": "",
          "type": "uint256"
        }
      ],
      "stateMutability": "view",
      "type": "function"
    },
    {
      "inputs": [
        {
          "internalType": "address",
          "name": "token",
          "type": "address"
        }
      ],
      "name": "drip",
      "outputs": [],
      "stateMutability": "nonpayable",
      "type": "function"
    },
    {
      "inputs": [
        {
          "internalType": "address",
          "name": "token",
          "type": "address"
        },
        {
          "internalType": "address",
          "name": "usr",
          "type": "address"
        },
        {
          "internalType": "int256",
          "name": "amount",
          "type": "int256"
        }
      ],
      "name": "estimatedLiquidationPrice",
      "outputs": [
        {
          "internalType": "uint256",
          "name": "",
          "type": "uint256"
        }
      ],
      "stateMutability": "view",
      "type": "function"
    },
    {
      "inputs": [
        {
          "internalType": "address",
          "name": "token",
          "type": "address"
        },
        {
          "internalType": "address",
          "name": "usr",
          "type": "address"
        }
      ],
      "name": "free",
      "outputs": [
        {
          "internalType": "uint256",
          "name": "",
          "type": "uint256"
        }
      ],
      "stateMutability": "view",
      "type": "function"
    },
    {
      "inputs": [
        {
          "internalType": "address",
          "name": "vat_",
          "type": "address"
        },
        {
          "internalType": "address",
          "name": "spot_",
          "type": "address"
        },
        {
          "internalType": "address",
          "name": "usb_",
          "type": "address"
        },
        {
          "internalType": "address",
          "name": "usbJoin_",
          "type": "address"
        },
        {
          "internalType": "address",
          "name": "jug_",
          "type": "address"
        }
      ],
      "name": "initialize",
      "outputs": [],
      "stateMutability": "nonpayable",
      "type": "function"
    },
    {
      "inputs": [],
      "name": "jug",
      "outputs": [
        {
          "internalType": "contract Jug",
          "name": "",
          "type": "address"
        }
      ],
      "stateMutability": "view",
      "type": "function"
    },
    {
      "inputs": [
        {
          "internalType": "address",
          "name": "token",
          "type": "address"
        },
        {
          "internalType": "address",
          "name": "usr",
          "type": "address"
        }
      ],
      "name": "locked",
      "outputs": [
        {
          "internalType": "uint256",
          "name": "",
          "type": "uint256"
        }
      ],
      "stateMutability": "view",
      "type": "function"
    },
    {
      "inputs": [],
      "name": "owner",
      "outputs": [
        {
          "internalType": "address",
          "name": "",
          "type": "address"
        }
      ],
      "stateMutability": "view",
      "type": "function"
    },
    {
      "inputs": [
        {
          "internalType": "address",
          "name": "token",
          "type": "address"
        },
        {
          "internalType": "uint256",
          "name": "dart",
          "type": "uint256"
        }
      ],
      "name": "payback",
      "outputs": [
        {
          "internalType": "uint256",
          "name": "",
          "type": "uint256"
        }
      ],
      "stateMutability": "nonpayable",
      "type": "function"
    },
    {
      "inputs": [],
      "name": "proxiableUUID",
      "outputs": [
        {
          "internalType": "bytes32",
          "name": "",
          "type": "bytes32"
        }
      ],
      "stateMutability": "view",
      "type": "function"
    },
    {
      "inputs": [
        {
          "internalType": "address",
          "name": "usr",
          "type": "address"
        }
      ],
      "name": "rely",
      "outputs": [],
      "stateMutability": "nonpayable",
      "type": "function"
    },
    {
      "inputs": [
        {
          "internalType": "address",
          "name": "token",
          "type": "address"
        },
        {
          "internalType": "address",
          "name": "gemJoin",
          "type": "address"
        }
      ],
      "name": "removeCollateralType",
      "outputs": [],
      "stateMutability": "nonpayable",
      "type": "function"
    },
    {
      "inputs": [],
      "name": "renounceOwnership",
      "outputs": [],
      "stateMutability": "nonpayable",
      "type": "function"
    },
    {
      "inputs": [
        {
          "internalType": "address",
          "name": "token",
          "type": "address"
        },
        {
          "internalType": "address",
          "name": "gemJoin",
          "type": "address"
        },
        {
          "internalType": "bytes32",
          "name": "ilk",
          "type": "bytes32"
        }
      ],
      "name": "setCollateralType",
      "outputs": [],
      "stateMutability": "nonpayable",
      "type": "function"
    },
    {
      "inputs": [],
      "name": "spotter",
      "outputs": [
        {
          "internalType": "contract Spotter",
          "name": "",
          "type": "address"
        }
      ],
      "stateMutability": "view",
      "type": "function"
    },
    {
      "inputs": [
        {
          "internalType": "string",
          "name": "source",
          "type": "string"
        }
      ],
      "name": "stringToBytes32",
      "outputs": [
        {
          "internalType": "bytes32",
          "name": "result",
          "type": "bytes32"
        }
      ],
      "stateMutability": "pure",
      "type": "function"
    },
    {
      "inputs": [
        {
          "internalType": "address",
          "name": "newOwner",
          "type": "address"
        }
      ],
      "name": "transferOwnership",
      "outputs": [],
      "stateMutability": "nonpayable",
      "type": "function"
    },
    {
      "inputs": [
        {
          "internalType": "address",
          "name": "newImplementation",
          "type": "address"
        }
      ],
      "name": "upgradeTo",
      "outputs": [],
      "stateMutability": "nonpayable",
      "type": "function"
    },
    {
      "inputs": [
        {
          "internalType": "address",
          "name": "newImplementation",
          "type": "address"
        },
        {
          "internalType": "bytes",
          "name": "data",
          "type": "bytes"
        }
      ],
      "name": "upgradeToAndCall",
      "outputs": [],
      "stateMutability": "payable",
      "type": "function"
    },
    {
      "inputs": [],
      "name": "usb",
      "outputs": [
        {
          "internalType": "contract Usb",
          "name": "",
          "type": "address"
        }
      ],
      "stateMutability": "view",
      "type": "function"
    },
    {
      "inputs": [],
      "name": "usbJoin",
      "outputs": [
        {
          "internalType": "contract UsbJoin",
          "name": "",
          "type": "address"
        }
      ],
      "stateMutability": "view",
      "type": "function"
    },
    {
      "inputs": [
        {
          "internalType": "address",
          "name": "token",
          "type": "address"
        }
      ],
      "name": "usbPrice",
      "outputs": [
        {
          "internalType": "uint256",
          "name": "",
          "type": "uint256"
        }
      ],
      "stateMutability": "view",
      "type": "function"
    },
    {
      "inputs": [],
      "name": "vat",
      "outputs": [
        {
          "internalType": "contract Vat",
          "name": "",
          "type": "address"
        }
      ],
      "stateMutability": "view",
      "type": "function"
    },
    {
      "inputs": [
        {
          "internalType": "address",
          "name": "",
          "type": "address"
        }
      ],
      "name": "wards",
      "outputs": [
        {
          "internalType": "uint256",
          "name": "",
          "type": "uint256"
        }
      ],
      "stateMutability": "view",
      "type": "function"
    },
    {
      "inputs": [
        {
          "internalType": "address",
          "name": "token",
          "type": "address"
        },
        {
          "internalType": "address",
          "name": "usr",
          "type": "address"
        },
        {
          "internalType": "int256",
          "name": "amount",
          "type": "int256"
        }
      ],
      "name": "willBorrow",
      "outputs": [
        {
          "internalType": "int256",
          "name": "",
          "type": "int256"
        }
      ],
      "stateMutability": "view",
      "type": "function"
    },
    {
      "inputs": [
        {
          "internalType": "address",
          "name": "token",
          "type": "address"
        },
        {
          "internalType": "uint256",
          "name": "dink",
          "type": "uint256"
        }
      ],
      "name": "withdraw",
      "outputs": [
        {
          "internalType": "uint256",
          "name": "",
          "type": "uint256"
        }
      ],
      "stateMutability": "nonpayable",
      "type": "function"
    }
  ],
  "bytecode": "0x60a06040523060805234801561001457600080fd5b5060805161370a61004c60003960008181610c6c01528181610cac015281816112da0152818161131a015261161c015261370a6000f3fe6080604052600436106101cf5760003560e01c806389a283b9116100f8578063cfb5192811610090578063cfb519281461053e578063db20266f1461055e578063db5501ea1461057e578063dc7e91dd1461059e578063f2fde38b146105be578063f3fef3a3146105de578063f4cf436a146105fe578063f563bb6f1461061e578063fc085c111461063e57600080fd5b806389a283b9146104135780638ae8b309146104335780638da5cb5b146104535780639c52a7f1146104715780639fecc37d14610491578063aa592eee146104b1578063b0a02abe146104d1578063bf353dbb146104f1578063c5cafb881461051e57600080fd5b80634eb3048a1161016b5780634eb3048a146103165780634f1ef28614610336578063515416101461034957806352d1902d1461036957806365fae35e1461037e57806367a5cd061461039e578063715018a6146103be57806372c8fef0146103d357806384718d89146103f357600080fd5b806308b1cb23146101d45780631459457a146102075780632e77468d1461022957806335ed8ab81461025657806336569e77146102765780633659cfe614610296578063435f4bb4146102b657806347e7ef24146102d65780634b8a3529146102f6575b600080fd5b3480156101e057600080fd5b506101f46101ef366004612eda565b61065e565b6040519081526020015b60405180910390f35b34801561021357600080fd5b50610227610222366004612ef7565b6107c8565b005b34801561023557600080fd5b5060cb54610249906001600160a01b031681565b6040516101fe9190612f68565b34801561026257600080fd5b506101f4610271366004612f7c565b6109c2565b34801561028257600080fd5b5060ca54610249906001600160a01b031681565b3480156102a257600080fd5b506102276102b1366004612eda565b610c61565b3480156102c257600080fd5b506102276102d1366004612fa8565b610d2a565b3480156102e257600080fd5b506101f46102f1366004612f7c565b610d81565b34801561030257600080fd5b506101f4610311366004612f7c565b610ffe565b34801561032257600080fd5b506101f4610331366004612eda565b6111e6565b61022761034436600461306d565b6112cf565b34801561035557600080fd5b506101f46103643660046130d1565b611389565b34801561037557600080fd5b506101f461160f565b34801561038a57600080fd5b50610227610399366004612eda565b6116bd565b3480156103aa57600080fd5b506102276103b9366004612eda565b611709565b3480156103ca57600080fd5b506102276117ee565b3480156103df57600080fd5b506101f46103ee366004612eda565b611824565b3480156103ff57600080fd5b5060ce54610249906001600160a01b031681565b34801561041f57600080fd5b506101f461042e366004612eda565b61191e565b34801561043f57600080fd5b5060cd54610249906001600160a01b031681565b34801561045f57600080fd5b506097546001600160a01b0316610249565b34801561047d57600080fd5b5061022761048c366004612eda565b611952565b34801561049d57600080fd5b506101f46104ac366004612eda565b61199b565b3480156104bd57600080fd5b506101f46104cc3660046130d1565b611b4a565b3480156104dd57600080fd5b506101f46104ec366004612fa8565b611d3b565b3480156104fd57600080fd5b506101f461050c366004612eda565b60c96020526000908152604090205481565b34801561052a57600080fd5b506101f4610539366004612fa8565b611e24565b34801561054a57600080fd5b506101f4610559366004613112565b611f02565b34801561056a57600080fd5b506101f4610579366004612fa8565b611f1f565b34801561058a57600080fd5b5060cc54610249906001600160a01b031681565b3480156105aa57600080fd5b506101f46105b9366004612fa8565b612008565b3480156105ca57600080fd5b506102276105d9366004612eda565b6121b9565b3480156105ea57600080fd5b506101f46105f9366004612f7c565b612251565b34801561060a57600080fd5b506102276106193660046130d1565b61249e565b34801561062a57600080fd5b506101f4610639366004612eda565b61266d565b34801561064a57600080fd5b506101f4610659366004612fa8565b61275f565b6001600160a01b03808216600090815260d060209081526040808320815160608101835281549095168552600180820154938601939093526002015463ffffffff16908401819052919291146106cf5760405162461bcd60e51b81526004016106c69061315b565b60405180910390fd5b60cb546020820151604051636cb1c69b60e11b815260048101919091526000916001600160a01b03169063d9638d36906024016040805180830381865afa15801561071e573d6000803e3d6000fd5b505050506040513d601f19601f820116820180604052508101906107429190613192565b509050600080826001600160a01b03166359e02dd76040518163ffffffff1660e01b81526004016040805180830381865afa158015610785573d6000803e3d6000fd5b505050506040513d601f19601f820116820180604052508101906107a991906131d5565b9150915080156107bc5750949350505050565b50600095945050505050565b600054610100900460ff166107e35760005460ff16156107e7565b303b155b61084a5760405162461bcd60e51b815260206004820152602e60248201527f496e697469616c697a61626c653a20636f6e747261637420697320616c72656160448201526d191e481a5b9a5d1a585b1a5e995960921b60648201526084016106c6565b600054610100900460ff1615801561086c576000805461ffff19166101011790555b61087461297f565b33600090815260c96020526040908190206001905560ca80546001600160a01b038981166001600160a01b0319928316811790935560cb80548a831690841617905560cc805489831690841617905560cd805488831690841617905560ce80549187169190921617905590516328ec8bf160e21b815263a3b22fc4906108fe908690600401612f68565b600060405180830381600087803b15801561091857600080fd5b505af115801561092c573d6000803e3d6000fd5b505060cc5460405163095ea7b360e01b81526001600160a01b03909116925063095ea7b3915061096490869060001990600401613201565b6020604051808303816000875af1158015610983573d6000803e3d6000fd5b505050506040513d601f19601f820116820180604052508101906109a7919061321a565b5080156109ba576000805461ff00191690555b505050505050565b6001600160a01b03808316600090815260d060209081526040808320815160608101835281549095168552600180820154938601939093526002015463ffffffff1690840181905291929114610a2a5760405162461bcd60e51b81526004016106c69061315b565b60cc546040516323b872dd60e01b81526001600160a01b03909116906323b872dd90610a5e90339030908890600401613235565b6020604051808303816000875af1158015610a7d573d6000803e3d6000fd5b505050506040513d601f19601f82011682018060405250810190610aa1919061321a565b5060cd54604051633b4da69f60e01b81526001600160a01b0390911690633b4da69f90610ad49033908790600401613201565b600060405180830381600087803b158015610aee57600080fd5b505af1158015610b02573d6000803e3d6000fd5b505060ca546020840151604051636cb1c69b60e11b81526004810191909152600093506001600160a01b03909116915063d9638d369060240160a060405180830381865afa158015610b58573d6000803e3d6000fd5b505050506040513d601f19601f82011682018060405250810190610b7c9190613259565b50505091505060008185676765c793fa10079d601b1b610b9c91906132af565b610ba691906132e4565b610baf906132f8565b60ca546020850151604051637608870360e01b81529293506001600160a01b0390911691637608870391610bf0913390819081906000908990600401613315565b600060405180830381600087803b158015610c0a57600080fd5b505af1158015610c1e573d6000803e3d6000fd5b50506040518781523392507f8c9cdf934f136ab5b80fe11dfd56363fa7544ecb56d4c440c0d8a14d04bfff4a915060200160405180910390a25092949350505050565b306001600160a01b037f0000000000000000000000000000000000000000000000000000000000000000161415610caa5760405162461bcd60e51b81526004016106c69061334a565b7f00000000000000000000000000000000000000000000000000000000000000006001600160a01b0316610cdc6129ae565b6001600160a01b031614610d025760405162461bcd60e51b81526004016106c690613396565b610d0b816129ca565b60408051600080825260208201909252610d27918391906129f4565b50565b33600090815260c96020526040902054600114610d595760405162461bcd60e51b81526004016106c6906133e2565b506001600160a01b0316600090815260d060205260409020600201805463ffffffff19169055565b6001600160a01b03808316600090815260d060209081526040808320815160608101835281549095168552600180820154938601939093526002015463ffffffff1690840181905291929114610de95760405162461bcd60e51b81526004016106c69061315b565b6040516323b872dd60e01b81526001600160a01b038516906323b872dd90610e1990339030908890600401613235565b6020604051808303816000875af1158015610e38573d6000803e3d6000fd5b505050506040513d601f19601f82011682018060405250810190610e5c919061321a565b508051604051633b4da69f60e01b81526001600160a01b0390911690633b4da69f90610e8e9033908790600401613201565b600060405180830381600087803b158015610ea857600080fd5b505af1158015610ebc573d6000803e3d6000fd5b505060ca54604051635216788d60e01b81523360048201523060248201526001600160a01b039091169250635216788d9150604401600060405180830381600087803b158015610f0b57600080fd5b505af1158015610f1f573d6000803e3d6000fd5b505060ca546020840151604051637608870360e01b81526001600160a01b03909216935063760887039250610f61913390819081908a90600090600401613315565b600060405180830381600087803b158015610f7b57600080fd5b505af1158015610f8f573d6000803e3d6000fd5b505050506001600160a01b038416600090815260cf602052604081208054859290610fbb908490613419565b909155505060405183815233907fe1fffcc4923d04b559f4d29a8bfc6cda04eb5b0d3c460751c2402c5c5cc9109c906020015b60405180910390a2509092915050565b6001600160a01b03808316600090815260d060209081526040808320815160608101835281549095168552600180820154938601939093526002015463ffffffff16908401819052919291146110665760405162461bcd60e51b81526004016106c69061315b565b60ca546020820151604051637608870360e01b81526001600160a01b03909216916376088703916110a4913390819081906000908b90600401613315565b600060405180830381600087803b1580156110be57600080fd5b505af11580156110d2573d6000803e3d6000fd5b505060ca546001600160a01b0316915063bb35783b9050333061110087676765c793fa10079d601b1b6132af565b6040518463ffffffff1660e01b815260040161111e93929190613235565b600060405180830381600087803b15801561113857600080fd5b505af115801561114c573d6000803e3d6000fd5b505060cd5460405163ef693bed60e01b81526001600160a01b03909116925063ef693bed91506111829033908790600401613201565b600060405180830381600087803b15801561119c57600080fd5b505af11580156111b0573d6000803e3d6000fd5b50506040518581523392507fcbc04eca7e9da35cb1393a6135a199ca52e450d5e9251cbd99f7847d33a367509150602001610fee565b6001600160a01b03808216600090815260d060209081526040808320815160608101835281549095168552600180820154938601939093526002015463ffffffff169084018190529192911461124e5760405162461bcd60e51b81526004016106c69061315b565b60ca546020820151604051636cb1c69b60e11b815260048101919091526000916001600160a01b03169063d9638d369060240160a060405180830381865afa15801561129e573d6000803e3d6000fd5b505050506040513d601f19601f820116820180604052508101906112c29190613259565b5092979650505050505050565b306001600160a01b037f00000000000000000000000000000000000000000000000000000000000000001614156113185760405162461bcd60e51b81526004016106c69061334a565b7f00000000000000000000000000000000000000000000000000000000000000006001600160a01b031661134a6129ae565b6001600160a01b0316146113705760405162461bcd60e51b81526004016106c690613396565b611379826129ca565b611385828260016129f4565b5050565b6001600160a01b03808416600090815260d060209081526040808320815160608101835281549095168552600180820154938601939093526002015463ffffffff16908401819052919291146113f15760405162461bcd60e51b81526004016106c69061315b565b60ca5460208201516040516309092f9760e21b815260009283926001600160a01b0390911691632424be5c9161142b918a90600401613431565b6040805180830381865afa158015611447573d6000803e3d6000fd5b505050506040513d601f19601f8201168201806040525081019061146b9190613448565b9150915081611479906132f8565b8512156114985760405162461bcd60e51b81526004016106c69061346c565b60008512156114b2576114ab85836134b4565b91506114bf565b6114bc8583613419565b91505b60ca546020840151604051636cb1c69b60e11b815260009283926001600160a01b039091169163d9638d36916114fb9160040190815260200190565b60a060405180830381865afa158015611518573d6000803e3d6000fd5b505050506040513d601f19601f8201168201806040525081019061153c9190613259565b505060cb546020890151604051636cb1c69b60e11b8152939650919450600093506001600160a01b03169163d9638d369161157d9160040190815260200190565b6040805180830381865afa158015611599573d6000803e3d6000fd5b505050506040513d601f19601f820116820180604052508101906115bd9190613192565b915060009050816ec097ce7bc90715b34b9f10000000006115de86886132af565b6115e891906132e4565b6115f291906132af565b90506115fe86826132e4565b9750505050505050505b9392505050565b6000306001600160a01b037f000000000000000000000000000000000000000000000000000000000000000016146116aa5760405162461bcd60e51b815260206004820152603860248201527f555550535570677261646561626c653a206d757374206e6f742062652063616c6044820152771b1959081d1a1c9bdd59da0819195b1959d85d1958d85b1b60421b60648201526084016106c6565b5060008051602061368e83398151915290565b33600090815260c960205260409020546001146116ec5760405162461bcd60e51b81526004016106c6906133e2565b6001600160a01b0316600090815260c96020526040902060019055565b6001600160a01b03808216600090815260d06020908152604091829020825160608101845281549094168452600180820154928501929092526002015463ffffffff169183018290521461176f5760405162461bcd60e51b81526004016106c69061315b565b60ce54602082015160405163089c54b560e31b81526001600160a01b03909216916344e2a5a8916117a69160040190815260200190565b6020604051808303816000875af11580156117c5573d6000803e3d6000fd5b505050506040513d601f19601f820116820180604052508101906117e991906134f5565b505050565b6097546001600160a01b031633146118185760405162461bcd60e51b81526004016106c69061350e565b6118226000612b5f565b565b6001600160a01b03808216600090815260d060209081526040808320815160608101835281549095168552600180820154938601939093526002015463ffffffff169084018190529192911461188c5760405162461bcd60e51b81526004016106c69061315b565b60ca546020820151604051636cb1c69b60e11b815260048101919091526000916001600160a01b03169063d9638d369060240160a060405180830381865afa1580156118dc573d6000803e3d6000fd5b505050506040513d601f19601f820116820180604052508101906119009190613259565b505092505050633b9aca008161191691906132e4565b949350505050565b60006119298261065e565b6001600160a01b038316600090815260cf602052604090205461194c91906132af565b92915050565b33600090815260c960205260409020546001146119815760405162461bcd60e51b81526004016106c6906133e2565b6001600160a01b0316600090815260c96020526040812055565b6001600160a01b03808216600090815260d060209081526040808320815160608101835281549095168552600180820154938601939093526002015463ffffffff1690840181905291929114611a035760405162461bcd60e51b81526004016106c69061315b565b60ce546020820151604051636cb1c69b60e11b815260048101919091526000916001600160a01b03169063d9638d36906024016040805180830381865afa158015611a52573d6000803e3d6000fd5b505050506040513d601f19601f82011682018060405250810190611a769190613448565b5090506000611b168260ce60009054906101000a90046001600160a01b03166001600160a01b0316635001f3b56040518163ffffffff1660e01b8152600401602060405180830381865afa158015611ad2573d6000803e3d6000fd5b505050506040513d601f19601f82011682018060405250810190611af691906134f5565b611b009190613419565b6301e13380676765c793fa10079d601b1b612bb1565b9050683635c9adc5dea00000611b37676765c793fa10079d601b1b83613543565b611b4191906132e4565b95945050505050565b6001600160a01b03808416600090815260d060209081526040808320815160608101835281549095168552600180820154938601939093526002015463ffffffff1690840181905291929114611bb25760405162461bcd60e51b81526004016106c69061315b565b60ca5460208201516040516309092f9760e21b815260009283926001600160a01b0390911691632424be5c91611bec918a90600401613431565b6040805180830381865afa158015611c08573d6000803e3d6000fd5b505050506040513d601f19601f82011682018060405250810190611c2c9190613448565b60ca546020860151604051636cb1c69b60e11b8152600481019190915292945090925060009182916001600160a01b03169063d9638d369060240160a060405180830381865afa158015611c84573d6000803e3d6000fd5b505050506040513d601f19601f82011682018060405250810190611ca89190613259565b5050925092505083611cb9906132f8565b871215611cd85760405162461bcd60e51b81526004016106c69061346c565b6000871215611cf257611ceb87856134b4565b9350611cff565b611cfc8785613419565b93505b6000611d0b82866132af565b90506000611d1985856132af565b9050676765c793fa10079d601b1b611d31828461355a565b6115fe9190613599565b6001600160a01b03808316600090815260d060209081526040808320815160608101835281549095168552600180820154938601939093526002015463ffffffff1690840181905291929114611da35760405162461bcd60e51b81526004016106c69061315b565b60ca5460208201516040516309092f9760e21b81526000926001600160a01b031691632424be5c91611dda91908890600401613431565b6040805180830381865afa158015611df6573d6000803e3d6000fd5b505050506040513d601f19601f82011682018060405250810190611e1a9190613448565b9695505050505050565b6001600160a01b03808316600090815260d060209081526040808320815160608101835281549095168552600180820154938601939093526002015463ffffffff1690840181905291929114611e8c5760405162461bcd60e51b81526004016106c69061315b565b60ca54602082015160405163214414d560e01b81526001600160a01b039092169163214414d591611ec1918790600401613431565b602060405180830381865afa158015611ede573d6000803e3d6000fd5b505050506040513d601f19601f8201168201806040525081019061191691906134f5565b80516000908290611f165750600092915050565b50506020015190565b6001600160a01b03808316600090815260d060209081526040808320815160608101835281549095168552600180820154938601939093526002015463ffffffff1690840181905291929114611f875760405162461bcd60e51b81526004016106c69061315b565b60ca5460208201516040516309092f9760e21b81526000926001600160a01b031691632424be5c91611fbe91908890600401613431565b6040805180830381865afa158015611fda573d6000803e3d6000fd5b505050506040513d601f19601f82011682018060405250810190611ffe9190613448565b5095945050505050565b6001600160a01b03808316600090815260d060209081526040808320815160608101835281549095168552600180820154938601939093526002015463ffffffff16908401819052919291146120705760405162461bcd60e51b81526004016106c69061315b565b60ca5460208201516040516309092f9760e21b815260009283926001600160a01b0390911691632424be5c916120aa918990600401613431565b6040805180830381865afa1580156120c6573d6000803e3d6000fd5b505050506040513d601f19601f820116820180604052508101906120ea9190613448565b60ca546020860151604051636cb1c69b60e11b8152600481019190915292945090925060009182916001600160a01b03169063d9638d369060240160a060405180830381865afa158015612142573d6000803e3d6000fd5b505050506040513d601f19601f820116820180604052508101906121669190613259565b505092509250506000818561217b91906132af565b9050600061218985856132af565b9050676765c793fa10079d601b1b6121a1828461355a565b6121ab9190613599565b9a9950505050505050505050565b6097546001600160a01b031633146121e35760405162461bcd60e51b81526004016106c69061350e565b6001600160a01b0381166122485760405162461bcd60e51b815260206004820152602660248201527f4f776e61626c653a206e6577206f776e657220697320746865207a65726f206160448201526564647265737360d01b60648201526084016106c6565b610d2781612b5f565b6001600160a01b03808316600090815260d060209081526040808320815160608101835281549095168552600180820154938601939093526002015463ffffffff16908401819052919291146122b95760405162461bcd60e51b81526004016106c69061315b565b60006122c58533611e24565b9050838110156123d05760006122db828661355a565b60ca5460208501519192506001600160a01b031690637608870390338080612302876132f8565b60006040518763ffffffff1660e01b815260040161232596959493929190613315565b600060405180830381600087803b15801561233f57600080fd5b505af1158015612353573d6000803e3d6000fd5b505060ca546020860151604051633088df1760e11b81526004810191909152336024820152306044820152606481018590526001600160a01b039091169250636111be2e9150608401600060405180830381600087803b1580156123b657600080fd5b505af11580156123ca573d6000803e3d6000fd5b50505050505b815160405163ef693bed60e01b81526001600160a01b039091169063ef693bed906124019033908890600401613201565b600060405180830381600087803b15801561241b57600080fd5b505af115801561242f573d6000803e3d6000fd5b505050506001600160a01b038516600090815260cf60205260408120805486929061245b908490613543565b909155505060405184815233907f884edad9ce6fa2440d8a54cc123490eb96d2768479d49ff9c7366125a94243649060200160405180910390a250919392505050565b33600090815260c960205260409020546001146124cd5760405162461bcd60e51b81526004016106c6906133e2565b604080516060810182526001600160a01b03848116825260208083018581526001848601818152898516600081815260d090955293879020955186546001600160a01b031916951694909417855590519084015590516002909201805463ffffffff191663ffffffff90931692909217909155905163095ea7b360e01b815263095ea7b39061256490859060001990600401613201565b6020604051808303816000875af1158015612583573d6000803e3d6000fd5b505050506040513d601f19601f820116820180604052508101906125a7919061321a565b5060ca54604051633b66319560e01b8152600481018390526001600160a01b0390911690633b66319590602401600060405180830381600087803b1580156125ee57600080fd5b505af1158015612602573d6000803e3d6000fd5b505060ca546040516332fd71af60e11b81526001600160a01b0390911692506365fae35e9150612636908590600401612f68565b600060405180830381600087803b15801561265057600080fd5b505af1158015612664573d6000803e3d6000fd5b50505050505050565b6001600160a01b03808216600090815260d060209081526040808320815160608101835281549095168552600180820154938601939093526002015463ffffffff16908401819052919291146126d55760405162461bcd60e51b81526004016106c69061315b565b60ca546020820151604051636cb1c69b60e11b815260048101919091526000916001600160a01b03169063d9638d369060240160a060405180830381865afa158015612725573d6000803e3d6000fd5b505050506040513d601f19601f820116820180604052508101906127499190613259565b505050915050633b9aca008161191691906132e4565b6001600160a01b03808316600090815260d060209081526040808320815160608101835281549095168552600180820154938601939093526002015463ffffffff16908401819052919291146127c75760405162461bcd60e51b81526004016106c69061315b565b60ca5460208201516040516309092f9760e21b815260009283926001600160a01b0390911691632424be5c91612801918990600401613431565b6040805180830381865afa15801561281d573d6000803e3d6000fd5b505050506040513d601f19601f820116820180604052508101906128419190613448565b60ca546020860151604051636cb1c69b60e11b8152600481019190915292945090925060009182916001600160a01b03169063d9638d369060240160a060405180830381865afa158015612899573d6000803e3d6000fd5b505050506040513d601f19601f820116820180604052508101906128bd9190613259565b505060cb546020890151604051636cb1c69b60e11b8152939650919450600093506001600160a01b03169163d9638d36916128fe9160040190815260200190565b6040805180830381865afa15801561291a573d6000803e3d6000fd5b505050506040513d601f19601f8201168201806040525081019061293e9190613192565b915060009050816ec097ce7bc90715b34b9f100000000061295f86886132af565b61296991906132e4565b61297391906132af565b90506121ab86826132e4565b600054610100900460ff166129a65760405162461bcd60e51b81526004016106c6906135c7565b611822612c6f565b60008051602061368e833981519152546001600160a01b031690565b6097546001600160a01b03163314610d275760405162461bcd60e51b81526004016106c69061350e565b7f4910fdfa16fed3260ed0e7147f7cc6da11a60208b5b9406d12a635614ffd91435460ff1615612a27576117e983612c9f565b826001600160a01b03166352d1902d6040518163ffffffff1660e01b8152600401602060405180830381865afa925050508015612a81575060408051601f3d908101601f19168201909252612a7e918101906134f5565b60015b612ae45760405162461bcd60e51b815260206004820152602e60248201527f45524331393637557067726164653a206e657720696d706c656d656e7461746960448201526d6f6e206973206e6f74205555505360901b60648201526084016106c6565b60008051602061368e8339815191528114612b535760405162461bcd60e51b815260206004820152602960248201527f45524331393637557067726164653a20756e737570706f727465642070726f786044820152681a58589b195555525160ba1b60648201526084016106c6565b506117e9838383612d3b565b609780546001600160a01b038381166001600160a01b0319831681179093556040519116919082907f8be0079c531659141344cd1fd0a4f28419497f9722a3daafe3b4186f6b6457e090600090a35050565b6000838015612c5157600184168015612bcc57859250612bd0565b8392505b50600283046002850494505b8415612c4b578586028687820414612bf357600080fd5b81810181811015612c0357600080fd5b8590049650506001851615612c40578583028387820414158715151615612c2957600080fd5b81810181811015612c3957600080fd5b8590049350505b600285049450612bdc565b50612c67565b838015612c615760009250612c65565b8392505b505b509392505050565b600054610100900460ff16612c965760405162461bcd60e51b81526004016106c6906135c7565b61182233612b5f565b6001600160a01b0381163b612d0c5760405162461bcd60e51b815260206004820152602d60248201527f455243313936373a206e657720696d706c656d656e746174696f6e206973206e60448201526c1bdd08184818dbdb9d1c9858dd609a1b60648201526084016106c6565b60008051602061368e83398151915280546001600160a01b0319166001600160a01b0392909216919091179055565b612d4483612d66565b600082511180612d515750805b156117e957612d608383612da6565b50505050565b612d6f81612c9f565b6040516001600160a01b038216907fbc7cd75a20ee27fd9adebab32041f755214dbc6bffa90cc0225b39da2e5c2d3b90600090a250565b60606001600160a01b0383163b612e0e5760405162461bcd60e51b815260206004820152602660248201527f416464726573733a2064656c65676174652063616c6c20746f206e6f6e2d636f6044820152651b9d1c9858dd60d21b60648201526084016106c6565b600080846001600160a01b031684604051612e29919061363e565b600060405180830381855af49150503d8060008114612e64576040519150601f19603f3d011682016040523d82523d6000602084013e612e69565b606091505b5091509150611b4182826040518060600160405280602781526020016136ae6027913960608315612e9b575081611608565b825115612eab5782518084602001fd5b8160405162461bcd60e51b81526004016106c6919061365a565b6001600160a01b0381168114610d2757600080fd5b600060208284031215612eec57600080fd5b813561160881612ec5565b600080600080600060a08688031215612f0f57600080fd5b8535612f1a81612ec5565b94506020860135612f2a81612ec5565b93506040860135612f3a81612ec5565b92506060860135612f4a81612ec5565b91506080860135612f5a81612ec5565b809150509295509295909350565b6001600160a01b0391909116815260200190565b60008060408385031215612f8f57600080fd5b8235612f9a81612ec5565b946020939093013593505050565b60008060408385031215612fbb57600080fd5b8235612fc681612ec5565b91506020830135612fd681612ec5565b809150509250929050565b634e487b7160e01b600052604160045260246000fd5b600067ffffffffffffffff8084111561301257613012612fe1565b604051601f8501601f19908116603f0116810190828211818310171561303a5761303a612fe1565b8160405280935085815286868601111561305357600080fd5b858560208301376000602087830101525050509392505050565b6000806040838503121561308057600080fd5b823561308b81612ec5565b9150602083013567ffffffffffffffff8111156130a757600080fd5b8301601f810185136130b857600080fd5b6130c785823560208401612ff7565b9150509250929050565b6000806000606084860312156130e657600080fd5b83356130f181612ec5565b9250602084013561310181612ec5565b929592945050506040919091013590565b60006020828403121561312457600080fd5b813567ffffffffffffffff81111561313b57600080fd5b8201601f8101841361314c57600080fd5b61191684823560208401612ff7565b6020808252601f908201527f496e746572616374696f6e2f696e61637469766520636f6c6c61746572616c00604082015260600190565b600080604083850312156131a557600080fd5b82516131b081612ec5565b6020939093015192949293505050565b805180151581146131d057600080fd5b919050565b600080604083850312156131e857600080fd5b825191506131f8602084016131c0565b90509250929050565b6001600160a01b03929092168252602082015260400190565b60006020828403121561322c57600080fd5b611608826131c0565b6001600160a01b039384168152919092166020820152604081019190915260600190565b600080600080600060a0868803121561327157600080fd5b5050835160208501516040860151606087015160809097015192989197509594509092509050565b634e487b7160e01b600052601160045260246000fd5b60008160001904831182151516156132c9576132c9613299565b500290565b634e487b7160e01b600052601260045260246000fd5b6000826132f3576132f36132ce565b500490565b6000600160ff1b82141561330e5761330e613299565b5060000390565b9586526001600160a01b039485166020870152928416604086015292166060840152608083019190915260a082015260c00190565b6020808252602c908201527f46756e6374696f6e206d7573742062652063616c6c6564207468726f7567682060408201526b19195b1959d85d1958d85b1b60a21b606082015260800190565b6020808252602c908201527f46756e6374696f6e206d7573742062652063616c6c6564207468726f7567682060408201526b6163746976652070726f787960a01b606082015260800190565b6020808252601a908201527f496e746572616374696f6e2f6e6f742d617574686f72697a6564000000000000604082015260600190565b6000821982111561342c5761342c613299565b500190565b9182526001600160a01b0316602082015260400190565b6000806040838503121561345b57600080fd5b505080516020909101519092909150565b60208082526028908201527f43616e6e6f74207769746864726177206d6f7265207468616e2063757272656e6040820152671d08185b5bdd5b9d60c21b606082015260800190565b600080821280156001600160ff1b03849003851316156134d6576134d6613299565b600160ff1b83900384128116156134ef576134ef613299565b50500190565b60006020828403121561350757600080fd5b5051919050565b6020808252818101527f4f776e61626c653a2063616c6c6572206973206e6f7420746865206f776e6572604082015260600190565b60008282101561355557613555613299565b500390565b60008083128015600160ff1b85018412161561357857613578613299565b6001600160ff1b038401831381161561359357613593613299565b50500390565b6000826135a8576135a86132ce565b600160ff1b8214600019841416156135c2576135c2613299565b500590565b6020808252602b908201527f496e697469616c697a61626c653a20636f6e7472616374206973206e6f74206960408201526a6e697469616c697a696e6760a81b606082015260800190565b60005b8381101561362d578181015183820152602001613615565b83811115612d605750506000910152565b60008251613650818460208701613612565b9190910192915050565b6020815260008251806020840152613679816040850160208701613612565b601f01601f1916919091016040019291505056fe360894a13ba1a3210667c828492db98dca3e2076cc3735a920a3ca505d382bbc416464726573733a206c6f772d6c6576656c2064656c65676174652063616c6c206661696c6564a264697066735822122060abe71284b004bd6c9fe3096291415360ffa9adbeab3276065713c2407d087164736f6c634300080a0033",
  "linkReferences": {},
  "deployedLinkReferences": {}
}