{
  "_format": "hh-sol-artifact-1",
  "contractName": "HelioRewards",
  "sourceName": "contracts/HelioRewards.sol",
  "abi": [
    {
      "inputs": [
        {
          "internalType": "address",
          "name": "vat_",
          "type": "address"
        }
      ],
      "stateMutability": "nonpayable",
      "type": "constructor"
    },
    {
      "anonymous": false,
      "inputs": [
        {
          "indexed": true,
          "internalType": "address",
          "name": "user",
          "type": "address"
        },
        {
          "indexed": false,
          "internalType": "uint256",
          "name": "amount",
          "type": "uint256"
        }
      ],
      "name": "Claimed",
      "type": "event"
    },
    {
      "inputs": [
        {
          "internalType": "address",
          "name": "usr",
          "type": "address"
        },
        {
          "internalType": "uint256",
          "name": "amount",
          "type": "uint256"
        }
      ],
      "name": "addRewards",
      "outputs": [],
      "stateMutability": "nonpayable",
      "type": "function"
    },
    {
      "inputs": [
        {
          "internalType": "uint256",
          "name": "amount",
          "type": "uint256"
        }
      ],
      "name": "claim",
      "outputs": [],
      "stateMutability": "nonpayable",
      "type": "function"
    },
    {
      "inputs": [
        {
          "internalType": "address",
          "name": "usr",
          "type": "address"
        }
      ],
      "name": "deny",
      "outputs": [],
      "stateMutability": "nonpayable",
      "type": "function"
    },
    {
      "inputs": [],
      "name": "distributionApy",
      "outputs": [
        {
          "internalType": "uint256",
          "name": "",
          "type": "uint256"
        }
      ],
      "stateMutability": "view",
      "type": "function"
    },
    {
      "inputs": [
        {
          "internalType": "bytes32",
          "name": "ilk",
          "type": "bytes32"
        }
      ],
      "name": "drip",
      "outputs": [],
      "stateMutability": "nonpayable",
      "type": "function"
    },
    {
      "inputs": [],
      "name": "helioPrice",
      "outputs": [
        {
          "internalType": "uint256",
          "name": "",
          "type": "uint256"
        }
      ],
      "stateMutability": "view",
      "type": "function"
    },
    {
      "inputs": [],
      "name": "helioToken",
      "outputs": [
        {
          "internalType": "address",
          "name": "",
          "type": "address"
        }
      ],
      "stateMutability": "view",
      "type": "function"
    },
    {
      "inputs": [
        {
          "internalType": "bytes32",
          "name": "ilk",
          "type": "bytes32"
        },
        {
          "internalType": "uint256",
          "name": "rate",
          "type": "uint256"
        }
      ],
      "name": "initPool",
      "outputs": [],
      "stateMutability": "nonpayable",
      "type": "function"
    },
    {
      "inputs": [],
      "name": "live",
      "outputs": [
        {
          "internalType": "uint256",
          "name": "",
          "type": "uint256"
        }
      ],
      "stateMutability": "view",
      "type": "function"
    },
    {
      "inputs": [
        {
          "internalType": "address",
          "name": "usr",
          "type": "address"
        }
      ],
      "name": "pendingRewards",
      "outputs": [
        {
          "internalType": "uint256",
          "name": "",
          "type": "uint256"
        }
      ],
      "stateMutability": "view",
      "type": "function"
    },
    {
      "inputs": [],
      "name": "rate",
      "outputs": [
        {
          "internalType": "uint256",
          "name": "",
          "type": "uint256"
        }
      ],
      "stateMutability": "view",
      "type": "function"
    },
    {
      "inputs": [
        {
          "internalType": "address",
          "name": "usr",
          "type": "address"
        }
      ],
      "name": "rely",
      "outputs": [],
      "stateMutability": "nonpayable",
      "type": "function"
    },
    {
      "inputs": [
        {
          "internalType": "address",
          "name": "helioToken_",
          "type": "address"
        }
      ],
      "name": "setHelioToken",
      "outputs": [],
      "stateMutability": "nonpayable",
      "type": "function"
    },
    {
      "inputs": [
        {
          "internalType": "bytes32",
          "name": "ilk",
          "type": "bytes32"
        },
        {
          "internalType": "uint256",
          "name": "newRate",
          "type": "uint256"
        }
      ],
      "name": "setRate",
      "outputs": [],
      "stateMutability": "nonpayable",
      "type": "function"
    },
    {
      "inputs": [],
      "name": "stop",
      "outputs": [],
      "stateMutability": "nonpayable",
      "type": "function"
    },
    {
      "inputs": [],
      "name": "vat",
      "outputs": [
        {
          "internalType": "contract VatLike",
          "name": "",
          "type": "address"
        }
      ],
      "stateMutability": "view",
      "type": "function"
    },
    {
      "inputs": [
        {
          "internalType": "address",
          "name": "",
          "type": "address"
        }
      ],
      "name": "wards",
      "outputs": [
        {
          "internalType": "uint256",
          "name": "",
          "type": "uint256"
        }
      ],
      "stateMutability": "view",
      "type": "function"
    },
    {
      "inputs": [
        {
          "internalType": "address",
          "name": "usr",
          "type": "address"
        },
        {
          "internalType": "uint256",
          "name": "dart",
          "type": "uint256"
        }
      ],
      "name": "withDraw",
      "outputs": [],
      "stateMutability": "nonpayable",
      "type": "function"
    }
  ],
  "bytecode": "0x608060405234801561001057600080fd5b5060405161106138038061106183398101604081905261002f91610069565b600180805533600090815260208190526040902055600580546001600160a01b0319166001600160a01b0392909216919091179055610099565b60006020828403121561007b57600080fd5b81516001600160a01b038116811461009257600080fd5b9392505050565b610fb9806100a86000396000f3fe608060405234801561001057600080fd5b50600436106100f65760003560e01c8063680819eb11610092578063680819eb146101c157806390391126146101d457806395217f6c146101e2578063953235ab146101f5578063957aa58c146102085780639c52a7f114610211578063a9fc507b14610224578063be9dc69a14610237578063bf353dbb1461024a57600080fd5b806307da68f5146100fb5780630b2d93a614610105578063191e2e83146101205780632c4e722e1461013357806331d7a2621461014a57806336569e771461015d578063379607f51461018857806344e2a5a81461019b57806365fae35e146101ae575b600080fd5b61010361026a565b005b61010d6102a9565b6040519081526020015b60405180910390f35b61010361012e366004610db4565b6102f5565b60075460009081526004602052604090205461010d565b61010d610158366004610dde565b610424565b600554610170906001600160a01b031681565b6040516001600160a01b039091168152602001610117565b610103610196366004610df9565b6105c5565b6101036101a9366004610df9565b610776565b6101036101bc366004610dde565b610905565b6101036101cf366004610e12565b610973565b67016345785d8a000061010d565b6101036101f0366004610dde565b6109b4565b610103610203366004610e12565b610a05565b61010d60015481565b61010361021f366004610dde565b610a67565b610103610232366004610db4565b610ad2565b600654610170906001600160a01b031681565b61010d610258366004610dde565b60006020819052908152604090205481565b336000908152602081905260409020546001146102a25760405162461bcd60e51b815260040161029990610e34565b60405180910390fd5b6000600155565b6007546000908152600460205260408120546298968090676765c793fa10079d601b1b906102dc906301e1338083610b63565b6102e69190610e7a565b6102f09190610e91565b905090565b6007546000908152600460205260409020600101546103265760405162461bcd60e51b815260040161029990610eb3565b336000908152602081905260409020546001146103555760405162461bcd60e51b815260040161029990610e34565b600554600754604051636cb1c69b60e11b815260048101919091526000916001600160a01b03169063d9638d36906024016040805180830381865afa1580156103a2573d6000803e3d6000fd5b505050506040513d601f19601f820116820180604052508101906103c69190610edc565b50905060006103d88360085484610c21565b905080600860008282546103ec9190610e7a565b90915550506001600160a01b03841660009081526002602052604081208054839290610419908490610f00565b909155505050505050565b6007546000908152600460205260408120600101546104555760405162461bcd60e51b815260040161029990610eb3565b600554600754604051636cb1c69b60e11b815260009283926001600160a01b039091169163d9638d369161048f9160040190815260200190565b6040805180830381865afa1580156104ab573d6000803e3d6000fd5b505050506040513d601f19601f820116820180604052508101906104cf9190610edc565b6005546007546040516309092f9760e21b815260048101919091526001600160a01b0388811660248301529395509193506000921690632424be5c906044016040805180830381865afa15801561052a573d6000803e3d6000fd5b505050506040513d601f19601f8201168201806040525081019061054e9190610edc565b91505060006105698284676765c793fa10079d601b1b610c21565b9050600061057a8260085487610c21565b6001600160a01b038816600090815260036020908152604080832054600290925290912054919250906105ae908390610f00565b6105b89190610e7a565b955050505050505b919050565b6007546000908152600460205260409020600101546105f65760405162461bcd60e51b815260040161029990610eb3565b6105ff33610424565b81111561064e5760405162461bcd60e51b815260206004820152601a60248201527f526577617264732f6e6f742d656e6f7567682d726577617264730000000000006044820152606401610299565b33600090815260026020526040902054811161068e573360009081526002602052604081208054839290610683908490610e7a565b909155506106c89050565b336000908152600260205260408120546106a89083610e7a565b336000908152600360209081526040808320939093556002905290812055505b6006546040516340c10f1960e01b8152336004820152602481018390526001600160a01b03909116906340c10f19906044016020604051808303816000875af1158015610719573d6000803e3d6000fd5b505050506040513d601f19601f8201168201806040525081019061073d9190610f18565b5060405181815233907fd8138f8a3f377c5259ca548e70e4c2de94f129f5a11036a15b69513cba2b426a9060200160405180910390a250565b6007546000908152600460205260409020600101546107a75760405162461bcd60e51b815260040161029990610eb3565b6000818152600460205260409020600101544210156107fd5760405162461bcd60e51b81526020600482015260126024820152715265776172642f696e76616c69642d6e6f7760701b6044820152606401610299565b6000818152600460205260408120805460019091015461083391906108229042610e7a565b676765c793fa10079d601b1b610b63565b6000838152600460208190526040808320426001909101556005546007549151636cb1c69b60e11b81529283019190915292935090916001600160a01b03169063d9638d36906024016040805180830381865afa158015610898573d6000803e3d6000fd5b505050506040513d601f19601f820116820180604052508101906108bc9190610edc565b50905060006108d78383676765c793fa10079d601b1b610c21565b90506108f48167016345785d8a0000670de0b6b3a7640000610c21565b600860008282546104199190610f00565b336000908152602081905260409020546001146109345760405162461bcd60e51b815260040161029990610e34565b6001546001146109565760405162461bcd60e51b815260040161029990610f3a565b6001600160a01b0316600090815260208190526040902060019055565b336000908152602081905260409020546001146109a25760405162461bcd60e51b815260040161029990610e34565b60009182526004602052604090912055565b336000908152602081905260409020546001146109e35760405162461bcd60e51b815260040161029990610e34565b600680546001600160a01b0319166001600160a01b0392909216919091179055565b33600090815260208190526040902054600114610a345760405162461bcd60e51b815260040161029990610e34565b60408051808201825291825242602080840191825260008581526004909152919091209151825551600190910155600755565b33600090815260208190526040902054600114610a965760405162461bcd60e51b815260040161029990610e34565b600154600114610ab85760405162461bcd60e51b815260040161029990610f3a565b6001600160a01b0316600090815260208190526040812055565b600754600090815260046020526040902060010154610b035760405162461bcd60e51b815260040161029990610eb3565b33600090815260208190526040902054600114610b325760405162461bcd60e51b815260040161029990610e34565b6001600160a01b03821660009081526002602052604081208054839290610b5a908490610f00565b90915550505050565b6000838015610c0357600184168015610b7e57859250610b82565b8392505b50600283046002850494505b8415610bfd578586028687820414610ba557600080fd5b81810181811015610bb557600080fd5b8590049650506001851615610bf2578583028387820414158715151615610bdb57600080fd5b81810181811015610beb57600080fd5b8590049350505b600285049450610b8e565b50610c19565b838015610c135760009250610c17565b8392505b505b509392505050565b600080806000198587098587029250828110838203039150508060001415610c5b5760008411610c5057600080fd5b508290049050610d96565b808411610c6757600080fd5b6000848688098084039381119092039190506000610c8786196001610f00565b8616958690049593849004936000819003046001019050610ca88184610f64565b909317926000610cb9876003610f64565b6002189050610cc88188610f64565b610cd3906002610e7a565b610cdd9082610f64565b9050610ce98188610f64565b610cf4906002610e7a565b610cfe9082610f64565b9050610d0a8188610f64565b610d15906002610e7a565b610d1f9082610f64565b9050610d2b8188610f64565b610d36906002610e7a565b610d409082610f64565b9050610d4c8188610f64565b610d57906002610e7a565b610d619082610f64565b9050610d6d8188610f64565b610d78906002610e7a565b610d829082610f64565b9050610d8e8186610f64565b955050505050505b9392505050565b80356001600160a01b03811681146105c057600080fd5b60008060408385031215610dc757600080fd5b610dd083610d9d565b946020939093013593505050565b600060208284031215610df057600080fd5b610d9682610d9d565b600060208284031215610e0b57600080fd5b5035919050565b60008060408385031215610e2557600080fd5b50508035926020909101359150565b60208082526016908201527514995dd85c991ccbdb9bdd0b585d5d1a1bdc9a5e995960521b604082015260600190565b634e487b7160e01b600052601160045260246000fd5b600082821015610e8c57610e8c610e64565b500390565b600082610eae57634e487b7160e01b600052601260045260246000fd5b500490565b6020808252600f908201526e14995dd85c990bdb9bdd0b5a5b9a5d608a1b604082015260600190565b60008060408385031215610eef57600080fd5b505080516020909101519092909150565b60008219821115610f1357610f13610e64565b500190565b600060208284031215610f2a57600080fd5b81518015158114610d9657600080fd5b60208082526010908201526f526577617264732f6e6f742d6c69766560801b604082015260600190565b6000816000190483118215151615610f7e57610f7e610e64565b50029056fea2646970667358221220a2d7d4124987f59dd2a0b2e84d6f2f208234c9cef8e1bf35dd08ec5276555cd564736f6c634300080a0033",
  "linkReferences": {},
  "deployedLinkReferences": {}
}